:020000040000FA
:10000000830100308A010428000020308400683019
:1000100020200730EB00FE30EA00683084006A30B0
:100020002520A0308400E830202083171030840081
:10003000363020200A128A112D2D04068001840AF0
:100040000406031D1D2864000034F1000A128A1101
:1000500035200A128A118000840A040871060319E7
:100060000034262883120313EA00EB1B40286B1B85
:1000700048286B088A006A08EA0A0319EB0A82001A
:1000800083136B1883176A08EA0A840000080800C3
:1000900083016B0C1F39831203178F008312031324
:1000A0006A0C831203178D00831603178C170C1428
:1000B00000000000831203170C0883016A186628E9
:1000C000831203178C1B03140E0D83017F39080064
:1000D000E529503ACE244610E9300036C82343289B
:1000E000B2194610E9300036C8234828B321201938
:1000F0006123EC344500D7226939653A45007239ED
:1001000043104126491D53273E003A0045007239ED
:100110005310B12B531DB22B2A00200020102010A9
:020120000000DD
:10012800830108008301CC005230CD000C30490215
:10013800031CA0280B30A1284908CE00CF014A088B
:10014800E0004B08E1000A128A15C4230A128A113A
:100158007108D0007208D1000C30F100F201490892
:10016800F102031CF2037208803AF3005108803A46
:100178007302031DC128500871020318CD280C30E2
:10018800F100F20149087102D0007208031C7203E1
:10019800D10051085004031900344D08840083131A
:1001A8008001800A4D0A840083134E081F39F1002C
:1001B8004C080139F2000530F3000310F20DF30B7F
:1001C800E1287208710480004A08E0004B08E10049
:1001D8005008E2005108E3004D08023E0A128A1551
:1001E800E6230A128A1151085004031901295108FB
:1001F800F2005008F100023006295108F2005008B8
:10020800F1000130F1070318F20A7108E0004D0807
:10021800E100CB300A128A15602469080A128A158F
:10022800A4240A128A110038031D830100348301B3
:10023800C400C6013229440803178D0083168C13A5
:100248000C1483120C080313C500C50803193629BA
:100258004508203A03193629C40AC60A4308460243
:10026800031C1F290C304602031C3C290B30C60016
:10027800460808008301A4080230C900031D5C2950
:100288000930CA004130CB0000300A128A1196208A
:100298000A128A112308023A031D08000230C90015
:1002A8000B30CA004130CB0001300A128A1196285F
:1002B8000B30CA004130CB0000300A128A11962058
:1002C8000A128A112308023A031D08000230C900E5
:1002D8000930CA004130CB0001300A128A11962831
:1002E8000A128A158F23C9011630CA008130CB0043
:1002F80000300A128A1196200A128A112308023A3B
:10030800031D9129C9012630CA008130CB00013074
:100318000A128A1196200A128A113E298301A6011F
:10032800A60AA901A401031792019301940195015A
:100338000313AA01A50108008301C9000A30490274
:1003480049080318A929303E0800373E08008301F0
:1003580020080A128A15A0250A128A1100380319E2
:10036800C6290A128A158F23C901BC30CA000C306D
:10037800CB0000300A128A15F9240A128A11C80122
:10038800C80A762A2708CC00BE30CD002008CE0047
:10039800B7300A128A155F25C8000A128A15ED259A
:1003A8000A128A114808B43A031DE129200A840078
:1003B8008313033000020318F529831641088312BA
:1003C800C600831642088312C7000930C8000A1203
:1003D8008A158F230A128A11C901FD30CA004030DC
:1003E800552A200A8400831300082007F1007103AE
:1003F800840083130008C600200A840083130008C1
:100408002007840083130008C7004608903A0319A0
:10041800C708031900340A128A158F230A128A1191
:100428004608663A031D322A4708C73A031D322A8E
:10043800C9015030CA000C30CB0000300A128A15AE
:10044800F924C9015C30CA000C30CB0001300A1213
:100458008A15F9240A128A1109304F2A4608693A7E
:10046800031D512A4708C23A031D512AC9016830A1
:10047800CA000C30CB0000300A128A15F924C901D1
:100488007430CA000C30CB0001300A128A15F924E6
:100498000A128A110230C800762AC9010D30CA0032
:1004A8004130CB0000300A128A1196200A128A11B4
:1004B800460E0F39A021B50046080F39A021B60015
:1004C800470E0F39A021B70047080F39A021B800FF
:1004D800B901C9013530CA008030CB0001300A1299
:1004E8008A11962020080A128A1584260A128A156B
:1004F8008F230A128A114808093A0319852A4808DD
:100508000800D3240A128A11480808008301C4018C
:10051800C50144080F3EA03E840083130008C300B1
:100528004508263E84008317430E0F39A021831700
:100538008000C50A4508263E8400831743080F3902
:10054800A02183178000C50AC40A05304402031C91
:100558008D2A4508263E8400831780010A128A15D1
:100568008F23C9011630CA008130CB0000300A122F
:100578008A119620C901C90A2630CA008130CB00E9
:1005880001300A128A119620C401C50120080A12F6
:100598008A1584260A128A110038031DD62AC50135
:1005A800C50ADB2AC40A03304402031CCA2AC50848
:1005B800031D0800D32C830127081D3EC6001E30EA
:1005C800C700FA2A4708A03E840083130008F100F8
:1005D8004608A03E8400831300087106F10046080F
:1005E800A03E8400831371088000C70A46084702AA
:1005F80003180800E62A83160313BE01BF010B3057
:10060800C0008030C1004E30C200C301C4010530B3
:10061800C50083122B088316C60083122C08831684
:10062800C70083122D088316C80083122E0883166C
:10063800C90083122F088316CA000530CB00CC01ED
:100648000F308312A700DF2A83160313BE01BF01F0
:100658001030C0008030C1004C30C200C301C4015A
:100668000A30C50083122B088316C60083122C0893
:100678008316C70083122D088316C80083122E081C
:100688008316C90083122F088316CA008312300804
:100698008316CB00831231088316CC0083123208EC
:1006A8008316CD00831233088316CE0083123408D4
:1006B8008316CF000A30D000D10114308312A7006E
:1006C800DF2A83160313BE01BF011530C000803036
:1006D800C1005C30C200C301C4010F30C5008312E1
:1006E80029088316C60083122B088316C7008312B5
:1006F8002C088316C80083122D088316C90083129C
:100708002E088316CA0083122F088316CB00831283
:100718002808033E8400831700088316CC00831240
:100728002808023E8400831700088316CD00831230
:10073800280A8400831700088316CE00831228082D
:100748008400831700088316CF001B30D500D6011C
:1007580019308312A700C3014308033E03178D0015
:1007680083168C130C14831203134308303EA03EE7
:100778008400831303170C0880000313C30A053091
:100788004302031CB02BDF2A83160313BE01BF01EB
:100798001530C0008030C1005830C200C301C40108
:1007A8000F30C500831229088316C60083122B0850
:1007B8008316C70083122C088316C80083122D08DD
:1007C8008316C90083122E088316CA0083122F08C5
:1007D8008316CB0083122808033E84008317000881
:1007E8008316CC0083122808023E84008317000871
:1007F8008316CD008312280A840083170008831605
:10080800CE00831228088400831700088316CF00BF
:100818000F30D500D60119308312A700C301430851
:10082800033E03178D0083168C130C1483120313D5
:100838004308303EA03E8400831303170C08800051
:100848000313C30A05304302031C132CDF2A830158
:10085800C3008316BE01BF010730C0008030C1004D
:10086800A230C200C301C401C501C50A83124308EE
:100878008316C6001130C700C8010B308312A700C9
:10088800DF2A8301C4008316BE01BF010C30C000FB
:100898008030C1004430C200C301C4010630C50025
:1008A800831244088316C60083122B088316C700D8
:1008B80083122C088316C80083122D088316C900DA
:1008C80083122E088316CA0083122F088316CB00C2
:1008D8001230CC00CD0110308312A700DF22AB21EB
:1008E8000A128A110038031DCD2C8316AB1F842CE5
:1008F80083124308103E840083178001800A8A2CE3
:1009080083124308103E8400831780018316AB08C6
:100918000319D02C03308312C5004508083EA03EB9
:100928008400831300087F39F100430EF03945072E
:10093800163E8400831771088000C50A0F304502EF
:10094800031C912C430EF039163E84008317440E85
:100958000F39A02183178000430EF039F100710A86
:10096800163E8400831744080F39A021831780009E
:10097800430EF039023E163E840083173A30800059
:10098800430EF0390C3E163E840083178001013077
:10099800D12CD3240A128A110030831208000A12BB
:1009A8008A15ED2520080A128A1584260A128A1546
:1009B8003E2E8301C401C50108308A004508002085
:1009C8000A128A11C300450803178D0083168C1379
:1009D8000C1483120C08031343060319C40AC50A2E
:1009E80003304502031CE02C4408033A03192B2D5D
:1009F800C50108308A00450800200A128A11C30080
:100A0800831603178C18042D831203134508031744
:100A18008D000313430803178C0083168C130310EF
:100A28008B1B03148B130C1555308D00AA308D00C9
:100A38008C140C1103188B1783120313C50AE030AA
:100A48004502031CFD2C831603178C18272D8301E0
:100A58000800A03083120313A0000A128A15AB23E2
:100A68001230A8000A128A1517240A128A11C20025
:100A7800DD244208033A031D4F2DC9010830CA007E
:100A88000C30CB0000300A128A15F9240A128A1198
:100A9800D3240A128A114208023A031D722DC20198
:100AA8004208A03E8400831308308A004208E120EF
:100AB8000A128A118000C20A0E304202031C542D09
:100AC8000E30E000A030E100D1300A128A1560240F
:100AD80020080A128A15A4240A128A11420303194B
:100AE800762DD3240A128A158F23C9011430CA001F
:100AF8000C30CB0000300A128A15F924C9012030C5
:100B0800CA000C30CB0001300A128A15F9240430CF
:100B1800C3002B300A128A15B0270A128A11C200A4
:100B2800420B032EB7010A128A158F23C901F5302B
:100B3800CA004030CB0000300A128A1196200A12EF
:100B48008A11C20142082B240A128A11AB210A1207
:100B58008A1100380319B32DD3240A128A11420EC0
:100B68000F39A021B50042080F39A021B600C901EC
:100B78003530CA008030CB0001300A128A11962025
:100B88000A128A11C1014108063EA03E840083135F
:100B98000008C000420EF0394107BF008316031752
:100BA8008C18D22D831203133F0803178D000313EB
:100BB800400803178C0083168C1303108B1B031437
:100BC8008B130C1555308D00AA308D008C140C1128
:100BD80003188B1783120313C10A10304102031C38
:100BE800C72D8316A51BFE2D8312C20A10304202A0
:100BF800031CA62D831603178C18FE2D762DFF22B5
:100C08000A128A11AB210A128A110038031D792DA4
:100C18009221261C222EC9012C30CA000C30CB0090
:100C280000300A128A15F924C9013830CA000C307C
:100C3800CB0001300A128A15F92426100A128A15E7
:100C4800A2270A128A112108493A031D312EA61C2F
:100C58002F2EA6100D2EA6140D2E21084E3A031D78
:100C68007B2EA6195C2EC301003045240A128A1176
:100C7800A300C301C30A013045240A128A11A3073D
:100C88002308A507A308031D572EC9018030CA00F1
:100C98000C30CB0000300A128A15F9240A128A1186
:100CA800D3240A128A1174210A128A11A6150D2E4C
:100CB800A408031D662E2308023A031D0D2EA40165
:100CC800A40A842EC301250845240A128A11C200E9
:100CD800C20803190D2EC301C30A250A45240A12A6
:100CE8008A11C2074208A300A507A4019E2E210865
:100CF800503A031DA22EA61DA22F240B882EA40154
:100D08003E210A128A110D2E03302502031C0D2ED6
:100D18002308A502C3012508FE3E45240A128A11AC
:100D2800C301C30A250345240A128A110230A3000D
:100D3800A401A40A74210A128A110D2E2108523A1C
:100D4800031DE02EA619AB2E2A08A900BF2F2308E1
:100D580025022407A9002408103E840083170018E0
:100D6800B72EA61CBC2E0A128A15EB260A128A1167
:100D7800C8230A128A11AB210A128A110038031DEE
:100D8800DB2EC201240EF0394207033E163E8400D2
:100D980083170008F1004208163E84008317710883
:100DA8008000C20A0C304202031CC62EE82FC9017B
:100DB800DC30CA004030F22F2108413A031D932F3E
:100DC8000A128A158F23C9018C30CA000C30CB0057
:100DD80000300A128A15F924C9019830CA000C306B
:100DE800CB0001300A128A15F9240A128A110C3034
:100DF800C30098301B21C200C30030300A128A1584
:100E0800B0270A128A1131083006031D2E2F310827
:100E18003206031D2E2F32083306031D2E2F3308EA
:100E28003406031D2E2F0A128A158F23C901C830D4
:100E3800CA000C30CB0000300A128A15F92402309F
:100E48000A128A15952620080A128A1584260A127B
:100E58008A11E42EC901A430CA000C30CB0001303D
:100E68000A128A15F9240A128A110C30C300A43018
:100E78001B21C200C30035300A128A15B0270A1296
:100E88008A1130083506031D592F31083606031D0F
:100E9800592F32083706031D592F33083806031D0A
:100EA800592F340839060319602F02300A128A159F
:100EB80095260A128A11E42E28230A128A11AB21D8
:100EC8000A128A110038031D822F0A128A158F23ED
:100ED800C901B030CA000C30CB0000300A128A15A4
:100EE800F9240A128A113008AB003108AC00320824
:100EF800AD003308AE003408AF008B2FC901D030E5
:100F0800CA004030CB0000300A128A1196202614FD
:100F180020080A128A1584260A128A110D2E210821
:100F2800543A031D9A2FAA0126110D2E0A128A156A
:100F3800A2260A128A11A208031DA92F01300A123B
:100F48008A1595260A128A110D2E2619B02F220805
:100F5800D03EAA0026150D2E2A08F1000310F10D27
:100F68000310F10D0310710DA9002A08A907A9079C
:100F78002208D03EA907A61CC62F0A128A15EB26FE
:100F88000A128A1165230A128A11AB210A128A11E0
:100F98000038031DEE2F8316B40803190C2E831294
:100FA800C2014208143EA03E8400831300087F3922
:100FB800F1004208163E8400831771088000C20AB7
:100FC8000C304202031CD52F0317A2018A220A12F1
:100FD8008A110C2EC901E830CA004030CB0000301D
:100FE8000A128A11962020080A128A1584260A12E3
:100FF8008A110C2E03343B3482076D346134663415
:10100800303430343034303430344F344134523466
:101018006E34653474343A343234303430343934DC
:1010280020342034203420344F34413452346E3448
:1010380065347434203420342034503449344E34E8
:101048003A342034203420342034203420342034DE
:1010580020342034203420344F34413452346E3418
:101068006534743420342034203420342034563409
:1010780065347234693466346934653464342034D0
:1010880020344334683461346C346C3465346E34E1
:10109800673465343A3420342034313430342034E1
:1010A8004634613469346C3475347234653473345D
:1010B8002034433461347234643420344C346F3413
:1010C80063346B3465346434203420342034203461
:1010D80041346334633465347334733420342034D6
:1010E8002034203420342034443465346E34693458
:1010F80065346434203420342034203420344E3491
:101108006F34203448346F34733474347334203477
:10111800203453346534743420344E346534773491
:101128002034503449344E3420344E3465347734C6
:10113800503449344E343A34203420342034203466
:10114800203441346734613469346E343A3420349D
:1011580020342034203420342034503449344E3460
:1011680020344334683461346E346734653464340D
:1011780020344E346F342034433461347234643450
:1011880020342034203420342034543472347934D8
:101198002034483461347234643465347234203411
:1011A8002034003400340034003400340034003477
:1011B8000034003400340034003482070C340A341C
:1011C8006D3461346634203448344F3454345034E8
:0A11D8002034203413342234333461
:10170800F500F50AF503031900340310F10DF20D85
:10171800F30DF40D862B3B308301C900840083133D
:101728008001E001E00AE101CB300A128A15602449
:101738000A128A1569080A128A15A42C080083124D
:1017480094128B130B17831694018301080002303F
:10175800831603139F00FC308500F3308600DF30CA
:101768008700FF308800073089003C3083128600EC
:101778002830870083168112A323A030A000080018
:1017880083016008E2006108E3006308EB00620877
:10179800E20A0319E30A0A128A1132200A128A1588
:1017A8000038031DC92B6308F2006208F1006008C5
:1017B800F102031CF2036108F202FF30F107031C77
:1017C800F20708008301E400E500032CE20803198E
:1017D800E303E2036108EB006008E00A0319E10A89
:1017E8000A128A1132200A128A15F100E50A6503E5
:1017F8008400831371088000800803190C2C630887
:10180800620403190C2CEA2B650884008001E50AA0
:1018180062080319E303E203620A0319630A031D5A
:10182800082C640808008301E001E101D0300A12A5
:101838008A15602420080A128A15A4240A128A1517
:10184800C3002008023E8400831380190134200855
:10185800023E8400801E00342008033E84000008F5
:10186800D13A031902342008033E84000008D23A12
:10187800031906342008033E84000008D43A0319EB
:1018880005342008033E84000008DC3A03190734B5
:101898002008033E84000008DD3A031903340034AD
:1018A80083128C11930086118C1D582C13088615F1
:1018B800F101F201031308008301E200E40194122C
:1018C800353094005330E500E50B682C051453308F
:1018D800E500E50B6D2C05105330E500E50B722C87
:1018E800620854246208E406003054246008542432
:1018F8006008E40600305424E3016008630203181A
:10190800932C630861078400831300085424630838
:101918006107840083130008E406E30A812C640845
:10192800542C83168C1583128C1100019301061117
:101938006300061583168C1183120313130808001D
:101948008301E300E101E401E60135309400DF3072
:10195800831687008C159524E700E6066308840043
:101968008313670880009524E700E606E0009524C5
:10197800E700E606630A84008313670880004130A5
:101988006702031CCF2C4030E2006708C03EE1002C
:101998000330E400D12C6708E2009524E700E6064E
:1019A800E000E501620865020318E62C9524E700CB
:1019B800E60665086307023E840083136708800013
:1019C800E50AD62CE501610865020318F02C952478
:1019D800E700E606E50AE72C9524E7006606031902
:1019E800F72C0430E400640808008301CC000C30B4
:1019F8004902031C012D0B30C9004B08F100F2010C
:101A08000C30F300F4014908F302031CF4037408D2
:101A1800803AF5007208803A7502031D152D710889
:101A2800730203181A2D49080C3CCB00CB08031984
:101A38000034D001D00A49081F39F1004C08013997
:101A4800F2000530F3000310F20DF30B272D720896
:101A58007104D1004B08023ECD000230CF004A0885
:101A6800CE004D084F0203184C2D4E0803178D0069
:101A780083168C130C14831203134F08503E8400F2
:101A8800831303170C0880000313CF0ACE0A352DE1
:101A98004B08023EE0005030E100CB300A128A15B4
:101AA800602469080A128A15A4240A128A150038C3
:101AB800031D830100348301CF004C08E0004D086A
:101AC800E1004F080A128A1560244E080A128A1586
:101AD800A4240A128A15003803197D2D83017D2D4F
:101AE8004E08023E8400000808004E0884000008E2
:101AF80008004E08840083130008B23A0319003422
:101B0800053A0319742D792D8301BF00CC01CD014D
:101B1800CE00B5305F25BA00B13A03190034EA3473
:101B28008301BF00CC01CD01CE00B0305F25BA00E3
:101B3800B03A03190034EA348301C900CA01CC0160
:101B4800CD01CE00B2305F25BA00B43A031DEA34A5
:101B58004908033E8400831300088039CB00803A8B
:101B6800031DE82DCA0A4908033E840000084039CD
:101B7800CB00403A0319CA0A4908033E840000080A
:101B88002039CB00203A0319CA0A4908033E8400C9
:101B980000081039CB00103A0319CA0A49084A0745
:101BA800033E84000008CB000F30CB05CB08031D93
:101BB800DF2DE801E62D4B0BE42DE801E80AE62DC0
:101BC8000230E800E9010034FE30E805E901E814D4
:101BD800EB3403308301E804CC01CD016908CE0061
:101BE800B3305F2D08008301BF00C001CC01CD01D7
:101BF800CE00B2305F25BA00B43A031DEA34103083
:101C0800C1003F08033E8400831300084105C20059
:101C1800C208031DC00A0310C10D813041023F08EC
:101C2800031C062E4007033E84000008C200F03063
:101C3800C205C208031D222EE801292E420B272EB9
:101C4800E801E80A292E1030E800E9010034830190
:101C5800BF0004303F02031CE1343F08CC003F08BA
:101C6800CD004008CE00B7305F25BA00B43A03195A
:101C78000034EA348301CC01CD016908CE00BA30C2
:101C88005F2D08008301BF00D730BF050330BF04B4
:101C980019304002031C532E1830C000592E013051
:101CA80040020318592EC001C00AC10803195E2E4C
:101CB800C101C10A0C3042020318C2014208C00027
:101CC800C00EF030C0050310C10D0310C10D031084
:101CD800C10D4108C0043F08BB003F08BC004008D4
:101CE800BD004008BE000430CC003B30CD004308A6
:101CF800CE00CA305F25BA00CA3A03190034EA3464
:101D08008301C9001030BB00CC01CC0A3B30CD00A8
:101D18004908CE00CA305F25BA00CA3A0319003410
:101D2800EA348301C800C8080319E034CC01CC0A9E
:101D38004830CD006908CE00C4305F2D83012108EA
:101D4800453A031DAA2E3030A20008002108443A63
:101D5800031DB12E3130A20008002108483A031DA6
:101D6800B82E3230A200080021084C3A031DBF2EBD
:101D78003330A20008002108433A031DC62E343030
:101D8800A20008002108473A031DCD2E3530A200D5
:101D9800080021084B3A031DD42E3630A200080053
:101DA8002108423A031DDB2E3730A2000800210823
:101DB800463A031DE22E3830A200080021084A3AAC
:101DC800031DE92E3930A2000800A2010800543092
:101DD8008301A100B60103179201930194019501B3
:101DE80003132108543A031D0F2F0A128A158F2353
:101DF800C9014430CA000C30CB0000300A128A15E1
:101E0800F9240A128A150317920193019401950186
:101E18000313C3019E2F2108523A03190800A22672
:101E2800A20803191B2F0A304302031C222F01307A
:101E38000A128A1595260A128A159E2F2208B500BD
:101E48004308C9003530CA008030CB0001300A127F
:101E58008A1196200A128A15C308031D372F2208F3
:101E6800303A03199E2F03171208F1001308F200E5
:101E78001408F3001508F40003300A128A158423A5
:101E88000A128A1571080313C4007208C500730882
:101E9800C6007408C70003171208F1001308F200FF
:101EA8001408F3001508F4000310F10DF20DF30DFA
:101EB800F40D71080313C4077208031C682F720A13
:101EC8000319F30A0319F40AC5077308031C6F2FD3
:101ED800730A0319F40AC60774080318740AC707B3
:101EE8002208F100F201D030F1070318F20AFF309E
:101EF800F207F301F4017108C40772080318720F9E
:101F0800C50773080318730FC60774080318740A03
:101F1800C7074408031792000313450803179300E3
:101F28000313460803179400031347080317950083
:101F38000313C30AA2270A128A15F42E8301200864
:101F48000A128A1584260A128A152008023E84007D
:101F580083130008A10008008301C400C501A2275B
:101F68000A128A152108523A031DBE2F4508053A60
:101F7800031900342108493A031DCB2F450BCB2FF9
:101F88004408840083130008333A031901342108F4
:101F9800543A031DDC2F4308C9001B30CA004130E6
:101FA800CB0001300A128A1196200A128A15B22F24
:101FB800A226053045020318F92FA2080319F92FA4
:101FC80045084307C9001930CA004130CB00013029
:101FD8000A128A1196200A128A15450844078400B5
:101FE800831322088000C50AB32F01300A128A150C
:081FF80095260A128A15B32F89
:00000001FF
