:020000040000FA
:10000000830100308A0104280000203084006C3015
:1000100020200730EF00FE30EE006C3084006E30A0
:100020002520A0308400E830202083171030840081
:10003000363020200A128A11532C04068001840ACB
:100040000406031D1D2864000034F1000A128A1101
:1000500035200A128A118000840A040871060319E7
:100060000034262883120313EE00EF1B40286F1B79
:1000700048286F088A006E08EE0A0319EF0A82000A
:1000800083136F1883176E08EE0A840000080800B7
:1000900083016F0C1F39831203178F008312031320
:1000A0006E0C831203178D00831603178C170C1424
:1000B00000000000831203170C0883016E186628E5
:1000C000831203178C1B03140E0D83017F39080064
:1000D000C8234828B3213A19ED3274385300F4325A
:1000E00049283A276133EC3447004E24661DE93035
:1000F0000036C8234328B219661DE9300036C823EC
:100100004828B3213A196133EC344500D7226939C4
:10011000653A4500723943104126491D53273E0078
:100120003A00450072395310B12B531DB22B2A00EF
:1001300020002010201000008301080083128C1181
:10014000930086118C1DA22813088615F101F20177
:10015000031308008301E600E8019412353094008F
:100160005330E900E90BB22805145330E900E90BDC
:10017000B72805105330E900E90BBC2866089E201B
:100180006608E80600309E2064089E206408E806A1
:1001900000309E20E701640867020318DD28670825
:1001A00065078400831300089E20670865078400A4
:1001B00083130008E806E70ACB2868089E28830115
:1001C000D0005630D1000C304D02031CE9280B3012
:1001D000EA284D08D200D3014E08E4004F08E5009C
:1001E0000A128A1532220A128A117108D400720882
:1001F000D5000C30F100F2014D08F102031CF203AE
:100200007208803AF3005508803A7302031D0A29E8
:1002100054087102031816290C30F100F2014D0840
:100220007102D4007208031C7203D50055085404EF
:10023000031900345108840083138001800A510A95
:100240008400831352081F39F10050080139F2006D
:100250000530F3000310F20DF30B2A297208710424
:1002600080004E08E4004F08E5005408E6005508F9
:10027000E7005108023E0A128A1554220A128A1116
:100280005508540403194A295508F2005408F1008E
:1002900002304F295508F2005408F1000130F107EF
:1002A0000318F20A7108E4005108E500CB300A1285
:1002B0008A11AA206D080A128A15D1220A128A11FF
:1002C0000038031D830100348301C500C7017B2969
:1002D000450803178D0083168C130C1483120C0829
:1002E0000313C600C60803197F294608203A0319DC
:1002F0007F29C50AC70A44084702031C68290C3035
:100300004702031C85290B30C700470808008301FA
:10031000A4080230CD00031DA5291F30CE004130B6
:10032000CF0000300A128A11DF200A128A11230836
:10033000023A031D08000230CD002130CE004130CA
:10034000CF0001300A128A11DF282130CE0041305F
:10035000CF0000300A128A11DF200A128A11230806
:10036000023A031D08000230CD001F30CE0041309C
:10037000CF0001300A128A11DF280A128A15FD21E6
:10038000CD011630CE008130CF0000300A128A1124
:10039000DF200A128A112308023A031DDA29CD014F
:1003A0002630CE008130CF0001300A128A11DF20C2
:1003B0000A128A1187298301A601A60AA901A401AC
:1003C000031792019301940195010313AA01A5015A
:1003D0000800830120080A128A15B1240A128A1122
:1003E0000A128A156B2C830127081D3EC7001E3098
:1003F000C8000E2A4808A03E840083130008F100BC
:100400004708A03E8400831300087106F1004708E6
:10041000A03E8400831371088000C80A4708480280
:1004200003180800FA2983160313BE01BF010B301D
:10043000C0008030C1004E30C200C301C40105308D
:10044000C50083122B088316C60083122C0883165E
:10045000C70083122D088316C80083122E08831646
:10046000C90083122F088316CA000530CB00CC01C7
:100470000F308312A700F32983160313BE01BF01B7
:100480001030C0008030C1004C30C200C301C40134
:100490000A30C50083122B088316C60083122C086D
:1004A0008316C70083122D088316C80083122E08F6
:1004B0008316C90083122F088316CA0083123008DE
:1004C0008316CB00831231088316CC0083123208C6
:1004D0008316CD00831233088316CE0083123408AE
:1004E0008316CF000A30D000D10114308312A70048
:1004F000F32983160313BE01BF011530C0008030FD
:10050000C1005C30C200C301C4010F30C5008312BA
:1005100029088316C60083122B088316C70083128E
:100520002C088316C80083122D088316C900831275
:100530002E088316CA0083122F088316CB0083125D
:100540002808033E8400831700088316CC0083121A
:100550002808023E8400831700088316CD0083120A
:10056000280A8400831700088316CE008312280807
:100570008400831700088316CF001B30D500D601F6
:1005800019308312A700C4014408033E03178D00ED
:1005900083168C130C14831203134408303EA03EC0
:1005A0008400831303170C0880000313C40A05306A
:1005B0004402031CC42AF32983160313BE01BF019E
:1005C0001530C0008030C1005830C200C301C401E2
:1005D0000F30C500831229088316C60083122B082A
:1005E0008316C70083122C088316C80083122D08B7
:1005F0008316C90083122E088316CA0083122F089F
:100600008316CB0083122808033E8400831700085A
:100610008316CC0083122808023E8400831700084A
:100620008316CD008312280A8400831700088316DE
:10063000CE00831228088400831700088316CF0099
:100640000F30D500D60119308312A700C401440829
:10065000033E03178D0083168C130C1483120313AF
:100660004408303EA03E8400831303170C0880002A
:100670000313C40A05304402031C272BF32983010A
:10068000C4008316BE01BF010730C0008030C10026
:10069000A230C200C301C401C501C50A83124408C7
:1006A0008316C6001130C700C8010B308312A700A3
:1006B000F3298301C5008316BE01BF010C30C000C1
:1006C0008030C1004430C200C301C4010630C500FF
:1006D000831245088316C60083122B088316C700B1
:1006E00083122C088316C80083122D088316C900B4
:1006F00083122E088316CA0083122F088316CB009C
:100700001230CC00CD0110308312A700F3210A1261
:100710008A1553260A128A110038031DF22B8316FC
:10072000AB1F9A2B83124408103E8400831780016C
:10073000800AA02B83124408103E84008317800196
:100740008316AD1FA92B83124408103E8400831723
:1007500080148316AB080319002C03308312C600E3
:100760004608083EA03E8400831300087F39F1004C
:10077000440EF0394607163E840083177108800046
:10078000C60A0F304602031CB02B440EF039163E49
:1007900084008317450E0F390A128A1548268317DD
:1007A0008000440EF039F100710A163E8400831770
:1007B00045080F390A128A1548260A128A1183172A
:1007C0008000440EF039023E163E840083173A3012
:1007D0008000440EF0390C3E163E840083178001E1
:1007E0000130012CCD01E930CE004030CF00003087
:1007F0000A128A11DF200A128A11E9210A128A11CB
:100800000030831208008301C501C60108308A0048
:10081000460800200A128A11C400460803178D00FA
:1008200083168C130C1483120C080313440603194B
:10083000C50AC60A03304602031C062C4508033AC3
:100840000319512CC60108308A00460800200A12FC
:100850008A11C400831603178C182A2C83120313E1
:10086000460803178D000313440803178C008316F2
:100870008C1303108B1B03148B130C1555308D0038
:10088000AA308D008C140C1103188B1783120313DC
:10089000C60AE0304602031C232C831603178C186B
:1008A0004D2C83010800A03083120313A0000A120C
:1008B0008A1519221230A8000A128A1585220A12F6
:1008C0008A11C30003244308033A031D752CCA018F
:1008D0000830CB000C30CC0000300A128A152623D9
:1008E0000A128A11E9210A128A114308023A031DE9
:1008F000982CC3014308A03E8400831308308A006B
:100900004308E1200A128A118000C30A0E30430214
:10091000031C7A2C0E30E400A030E500D1300A121E
:100920008A11AA2020080A128A15D1220A128A11D5
:10093000430303199E2C0A128A156B240A128A1586
:10094000FD21CA011430CB000C30CC0000300A125B
:100950008A152623CA012030CB000C30CC00013090
:100960000A128A1526230430C4002B300A128A1575
:10097000F8250A128A11C300430B2F2DB7010A1262
:100980008A15FD21CD010B30CE004130CF00003063
:100990000A128A11DF200A128A11C30143083F2379
:1009A0000A128A1553260A128A1100380319DB2C01
:1009B0000A128A156B24430E0F390A128A1548262B
:1009C000B50043080F390A128A154826B600CD0132
:1009D0003530CE008030CF0001300A128A11DF207E
:1009E0000A128A11C2014208063EA03E8400831307
:1009F0000008C000430EF0394207BF0083160317FA
:100A00008C18FE2C831203133F0803178D00031369
:100A1000400803178C0083168C1303108B1B0314E0
:100A20008B130C1555308D00AA308D008C140C11D1
:100A300003188B1783120313C20A10304202031CDF
:100A4000F32C8316A51B2A2D8312C30A10304302F0
:100A5000031CCE2C831603178C182A2D9E2C1322D0
:100A60000A128A1553260A128A110038031DA12C76
:100A7000DB21261C4E2DCA012C30CB000C30CC00C3
:100A800000300A128A152623CA013830CB000C30F8
:100A9000CC0001300A128A15262326100A128A1564
:100AA000E2250A128A112108493A031D5D2DA61C70
:100AB0005B2DA610392DA614392D21084E3A031DA1
:100AC000A72DA619882DC401003059230A128A11B6
:100AD000A300C401C40A013059230A128A11A307D2
:100AE0002308A507A308031D832DCA018030CB006E
:100AF0000C30CC0000300A128A1526230A128A1103
:100B0000E9210A128A11BD210A128A11A615392D6E
:100B1000A408031D922D2308023A031D392DA401B8
:100B2000A40AB02DC401250859230A128A11C30052
:100B3000C3080319392DC401C40A250A59230A120E
:100B40008A11C3074308A300A507A401CA2D2108E1
:100B5000503A031DCE2DA61DF22E240BB42DA40158
:100B600087210A128A11392D03302502031C392DE1
:100B70002308A502C4012508FE3E59230A128A1142
:100B8000C401C40A250359230A128A110230A300A2
:100B9000A401A40ABD210A128A11392D2108523A52
:100BA000031D2F2EA619D72D2A08A9000F2F2308C1
:100BB00025022407A9002408103E8400831700188A
:100BC000E32DA61CE82D0A128A152B250A128A117C
:100BD000DC220A128A1553260A128A110038031DD4
:100BE000202EC301240EF0394307033E163E840035
:100BF00083170008F1004308163E8400831771082C
:100C00008000C30A0C304302031CF22D0317A2011B
:100C100003132408103E84008317C1018018C10A01
:100C200041080A128A1536270A128A110038031958
:100C3000382D0A128A15FD210A128A11A90A0F2FCE
:100C4000CD01F230CE004030CF0000300A128A11C0
:100C5000DF200A128A11E9210A128A11382D21088F
:100C6000413A031DE32E0A128A15FD21CA018C3078
:100C7000CB000C30CC0000300A128A152623CA01A2
:100C80009830CB000C30CC0001300A128A15262394
:100C90000A128A110C30C40098306421C300C400C9
:100CA00030300A128A15F8250A128A1131083006E6
:100CB000031D7C2E31083206031D7C2E32083306BC
:100CC000031D7C2E33083406031D7C2E0A128A1560
:100CD000FD21CA01C830CB000C30CC0000300A1214
:100CE0008A15262302300A128A15C2240A128A158E
:100CF000E2250A128A11332ECA01A430CB000C302F
:100D0000CC0001300A128A1526230A128A110C30EF
:100D1000C400A4306421C300C40035300A128A150F
:100D2000F8250A128A1130083506031DA72E31084E
:100D30003606031DA72E32083706031DA72E3308DB
:100D40003806031DA72E340839060319AE2E0230CB
:100D50000A128A15C2240A128A11332E3C220A1260
:100D60008A1553260A128A110038031DD02E0A1242
:100D70008A15FD21CA01B030CB000C30CC00003008
:100D80000A128A1526230A128A113008AB0031088C
:100D9000AC003208AD003308AE003408AF00DC2EE2
:100DA000CD01DD30CE004030CF0000300A128A1174
:100DB000DF200A128A11E92126140A128A15E22577
:100DC0000A128A11392D2108543A031DEA2EAA016C
:100DD0002611392D0A128A15E2240A128A11A20854
:100DE000031DF92E01300A128A15C2240A128A1133
:100DF000392D2619002F2208D03EAA002615392D9C
:100E00002A08F1000310F10D0310F10D0310710D0C
:100E1000A9002A08A907A9072208D03EA907A61CED
:100E2000162F0A128A152B250A128A1179220A1204
:100E30008A1553260A128A110038031D592F83166A
:100E4000B40883120319542FC3014308143EA03E73
:100E50008400831300087F39F1004308163E8400A4
:100E6000831771088000C30A0C304302031C252F2E
:100E70000317A20183160313B61F422F8312C10169
:100E8000C10A442F8312C10141080A128A1536276C
:100E90000A128A1100380319382DA90A0A128A1574
:100EA000FD210A128A110F2FCD01D030CE00403023
:100EB0005D2FCD01FE30CE004030CF0000300A1251
:100EC0008A11DF200A128A11E9210A128A110F2FD2
:100ED00084018312FD01F901FA01FB01FC0175088F
:100EE0007604770478040319782FC030FD05832F2A
:100EF000F101F201F301F401EF2F0310F50DF60DEE
:100F0000F70DF80DFD0AF81F7D2FFD0A0310F90DEE
:100F1000FA0DFB0DFC0D78087402031D992F77085C
:100F20007302031D992F76087202031D992F75080D
:100F30007102031CAB2F79147508F1027608031CAB
:100F4000760FF2027708031C770FF3027808031C70
:100F5000780FF4020310F80CF70CF60CF50CFD03F7
:100F60007D083F39031D862F7D1FC32F0310FF30DF
:100F7000F107F109031CF207F209031CF307F30957
:100F8000031CF407F4097108F5007208F6007308F1
:100F9000F7007408F8007908F1007A08F2007B087D
:100FA000F3007C08F400FD1FEF2F0310FF30F10762
:100FB000F109031CF207F209031CF307F309031CF0
:100FC000F407F409EF2F0008F100840A0008F2008A
:100FD000840A0008F300840A0008F400692F8408DA
:100FE00003190034740880008403730880008403AC
:100FF00072088000840371088000003403343B349D
:1010000082076D34613466343034303430343034F7
:1010100030344F34413452346E34653474343A349D
:1010200032343034303439342034203420342034D5
:101030004F34413452346E346534743420342034A7
:101040002034503449344E343A342034203420345F
:1010500020342034203420342034203420342034F0
:101060004F34413452346E34653474342034203477
:101070002034203420345634653472346934663474
:101080006934653464342034203443346834613442
:101090006C346C3465346E34673465343A342034DF
:1010A00020343134303420344634613469346C3483
:1010B000753472346534733420344334613472349B
:1010C000643420344C346F3463346B3465346434AA
:1010D0002034203420342034413463346334653484
:1010E00073347334203420342034203420342034BA
:1010F000443465346E3469346534643420342034C7
:101100002034203420344E346F34203448346F344B
:101110007334743473342034203453346534743469
:1011200020344E34653477342034503449344E34CE
:1011300020344E3465347734503449344E343A34A4
:101140002034203420342034203441346734613456
:1011500069346E343A34203420342034203420343E
:101160002034503449344E342034433468346134AC
:101170006E3467346534643420344E346F34203434
:1011800043346134723464342034203420342034C5
:101190002034543472347934203448346134723415
:1011A0006434653472342034203400340034003424
:1011B000003400340034003400340034003400348F
:1011C000003482070C340A346D34613466342034C0
:1011D00048344F34543450342034203414342234BE
:0211E0003334A6
:1013D8000A128A156B240A128A150800F500F50A04
:1013E800F503031900340310F10DF20DF30DF40D9C
:1013F800F4293B308301CD00840083138001E4018C
:10140800E40AE501CB300A128A11AA200A128A15C9
:101418006D080A128A15D12A0800831294128B13B8
:101428000B178316940183010800023083160313F7
:101438009F00FC308500F3308600DF308700FF30E6
:101448008800073089003C308312860028308700E6
:10145800831681121122A030A000080083016408BD
:10146800E6006508E7006708EF006608E60A031962
:10147800E70A0A128A1132200A128A150038031D57
:10148800372A6708F2006608F1006408F102031CB5
:10149800F2036508F202FF30F107031CF2070800A7
:1014A8008301E800E900712AE6080319E703E60367
:1014B8006508EF006408E40A0319E50A0A128A11AC
:1014C80032200A128A15F100E90A6903840083139D
:1014D80071088000800803197A2A670866040319CE
:1014E8007A2A582A690884008001E90A66080319DB
:1014F800E703E603660A0319670A031D762A6808E4
:1015080008008301E401E501D0300A128A11AA20FB
:1015180020080A128A15D1220A128A15C400200846
:10152800023E84008313801901342008023E84009F
:10153800801E00342008033E84000008D13A0319B5
:1015480002342008033E84000008D23A0319063406
:101558002008033E84000008D43A03190534200803
:10156800033E84000008DC3A031907342008033ED0
:1015780084000008DD3A03190334003483168C15FF
:1015880083128C110001930106116300061583165E
:101598008C1183120313130808008301E700E50187
:1015A800E801EA0135309400DF30831687008C1596
:1015B800C222EB00EA066708840083136B088000E8
:1015C800C222EB00EA06E400C222EB00EA06670A40
:1015D800840083136B08800041306B02031CFC2AD3
:1015E8004030E6006B08C03EE5000330E800FE2A04
:1015F8006B08E600C222EB00EA06E400E90166088F
:1016080069020318132BC222EB00EA066908670770
:10161800023E840083136B088000E90A032BE9016A
:101628006508690203181D2BC222EB00EA06E90AC5
:10163800142BC222EB006A060319242B0430E8009D
:10164800680808008301CD000C304A02031C2E2BC9
:101658000B30CA004C08F100F2010C30F300F40121
:101668004A08F302031CF4037408803AF500720870
:10167800803A7502031D422B710873020318472B29
:101688004A080C3CCC00CC0803190034D101D10A1B
:101698004A081F39F1004D080139F2000530F300FE
:1016A8000310F20DF30B542B72087104D2004C088E
:1016B800023ECE000230D0004B08CF004E08500248
:1016C8000318792B4F0803178D0083168C130C14FD
:1016D800831203135008513E8400831303170C0828
:1016E80080000313D00ACF0A622B4C08023EE400A4
:1016F8005130E500CB300A128A11AA206D080A126F
:101708008A15D1220A128A150038031D8301003474
:101718008301D1004E08E4004F08E50051080A1281
:101728008A11AA2050080A128A15D1220A128A158B
:1017380000380319AA2B8301AA2B5008023E840003
:1017480000080800500884000008080050088400B9
:1017580083130008B23A03190034053A0319A12B80
:10176800A62B8301BF00CE01CF01D000B5308C235A
:10177800BA00B13A03190034EA348301BF00CE013C
:10178800CF01D000B0308C23BA00B03A031900342E
:10179800EA348301CA00CB01CE01CF01D000B230B8
:1017A8008C23BA00B43A031DEA344A08033E840085
:1017B800831300088039CC00803A031D152CCB0A0E
:1017C8004A08033E840000084039CC00403A031917
:1017D800CB0A4A08033E840000082039CC00203A8E
:1017E8000319CB0A4A08033E840000081039CC00CC
:1017F800103A0319CB0A4A084B07033E8400000835
:10180800CC000F30CC05CC08031D0C2CEC01132C9C
:101818004C0B112CEC01EC0A132C0230EC00ED01FE
:101828000034FE30EC05ED01EC14EB340330830199
:10183800EC04CE01CF016D08D000B3308C2B08002A
:101848008301BF00C001CE01CF01D000B2308C238C
:10185800BA00B43A031DEA341030C1003F08033E11
:101868008400831300084105C200C208031DC00A92
:101878000310C10D813041023F08031C332C40077F
:10188800033E84000008C200F030C205C208031DF0
:101898004F2CEC01562C420B542CEC01EC0A562C24
:1018A8001030EC00ED0100348301BF0004303F022A
:1018B800031CE1343F08CE003F08CF004008D000A9
:1018C800B7308C23BA00B43A03190034EA348301E0
:1018D800CE01CF016D08D000BA308C2B08008301EF
:1018E800BF00D730BF050330BF0419304002031CC6
:1018F800802C1830C000862C013040020318862C3A
:10190800C001C00AC10803198B2CC101C10A0C30DF
:1019180042020318C2014208C000C00EF030C005E0
:101928000310C10D0310C10D0310C10D4108C004FF
:101938003F08BB003F08BC004008BD004008BE008F
:101948000430CE003B30CF004308D000CA308C238F
:10195800BA00CA3A03190034EA348301CD001030C2
:10196800BB00CE01CE0A3B30CF004D08D000CA30B4
:101978008C23BA00CA3A03190034EA348301C90037
:10198800C9080319E034CE01CE0A4930CF006D08EA
:10199800D000C4308C2B8301CE01CF016D08D0005C
:1019A800D3308C2B08008301BF00CE01CE0A3F3014
:1019B800CF006D08D000D3308C2B0800830121089C
:1019C800453A031DEA2C3030A20008002108443AA9
:1019D800031DF12C3130A20008002108483A031DEC
:1019E800F82C3230A200080021084C3A031DFF2CC5
:1019F8003330A20008002108433A031D062D343075
:101A0800A20008002108473A031D0D2D3530A20019
:101A1800080021084B3A031D142D3630A200080097
:101A28002108423A031D1B2D3730A2000800210867
:101A3800463A031D222D3830A200080021084A3AF0
:101A4800031D292D3930A2000800A20108005430D6
:101A58008301A100B6010317920193019401950136
:101A680003132108543A031D4F2D0A128A15FD212C
:101A7800CA014430CB000C30CC0000300A128A1561
:101A880026230A128A1503179201930194019501DE
:101A98000313C401DE2D2108523A03190800E22479
:101AA800A20803195B2D0A304402031C622D013081
:101AB8000A128A15C2240A128A15DE2D2208B500D8
:101AC8004408CD003530CE008030CF0001300A12F6
:101AD8008A11DF200A128A15C408031D772D2208EF
:101AE800303A0319DE2D03171208F1001308F2002B
:101AF8001408F3001508F40003300A128A15F221BD
:101B08000A128A1571080313C5007208C600730803
:101B1800C7007408C80003171208F1001308F20080
:101B28001408F3001508F4000310F10DF20DF30D7D
:101B3800F40D71080313C5077208031CA82D720A57
:101B48000319F30A0319F40AC6077308031CAF2D17
:101B5800730A0319F40AC70774080318740AC80734
:101B68002208F100F201D030F1070318F20AFF3021
:101B7800F207F301F4017108C50772080318720F20
:101B8800C60773080318730FC70774080318740A85
:101B9800C807450803179200031346080317930064
:101BA8000313470803179400031348080317950005
:101BB8000313C40AE2250A128A15342D830120086A
:101BC8000A128A15B1240A128A1500380319F12D50
:101BD8000A128A156B240A128A152008023E84000C
:101BE80083130008A10008008301C500C601E2258F
:101BF8000A128A152108523A031D062E4608053A8C
:101C0800031900342108493A031D132E460B132EDD
:101C18004508840083130008333A03190134210866
:101C2800543A031D242E4408CD003130CE004130F3
:101C3800CF0001300A128A11DF200A128A15FA2D04
:101C4800E224053046020318412EA2080319412E4A
:101C580046084407CD002F30CE004130CF00013078
:101C68000A128A11DF200A128A15460845078400DD
:101C7800831322088000C60AFB2D01300A128A1538
:101C8800C2240A128A15FB2D8301CD000A304D02A9
:101C98004D080318512E303E0800373E08008301D6
:101CA80020080A128A15CD230A128A15003803194A
:101CB800712E0A128A15FD21CA01BC30CB000C30E6
:101CC800CC0000300A128A1526230A128A151A2413
:101CD8000A128A15C901C90A232F2708CE00BE3067
:101CE800CF002008D000B7300A128A158C23C9000B
:101CF8000A128A151A240A128A154908B43A031DC9
:101D08008C2E200A84008313033000020318A02EAF
:101D1800831641088312C700831642088312C8003D
:101D28000930C9000A128A15FD210A128A15CD0147
:101D38001330CE004130002F200A8400831300089E
:101D48002007F1007103840083130008C700200AEC
:101D58008400831300082007840083130008C80048
:101D68004708903A0319C808031900340A128A155B
:101D7800FD210A128A154708663A031DDD2E480818
:101D8800C73A031DDD2ECA015030CB000C30CC0001
:101D980000300A128A152623CA015C30CB000C30A9
:101DA800CC0001300A128A1526230A128A15093036
:101DB800FA2E4708693A031DFC2E4808C23A031D4B
:101DC800FC2ECA016830CB000C30CC0000300A125F
:101DD8008A152623CA017430CB000C30CC000130A0
:101DE8000A128A1526230A128A150230C900232FDF
:101DF800CD012330CE004130CF0000300A128A11C5
:101E0800DF200A128A15470E0F394826B500470801
:101E18000F394826B600480E0F394826B70048083B
:101E28000F394826B800B901CD013530CE008030D1
:101E3800CF0001300A128A11DF200A128A15E22522
:101E48000A128A15FD210A128A154908093A031946
:101E58002F2F490808000A128A156B240A128A15BE
:101E6800490808008301C400C408031D5F2FC80186
:101E7800C60148080F3EA03E840083130008C50031
:101E88004608263E84008317450E0F3948268317D7
:101E98008000C60A4608263E8400831745080F3985
:101EA800482683178000C60AC80A05304802031C62
:101EB8003D2F4608C12F4930C700033E84008313D5
:101EC80083162F08800083124708023E8400831679
:101ED800300880008312470A840083163108800086
:101EE800831247088400831632088000A0308312CA
:101EF800C7000A30F500F601F701F8018312031351
:101F08004908F1004A08F2004B08F3004C08F400B5
:101F18000A128A1168277508303EF100C70A470877
:101F280084008313710880000A30F500F601F70178
:101F3800F8014930840083130A128A11E3270A1230
:101F48008A157408730472047104031D7D2F8312AB
:101F58000313C801A03047060319C02F470884009F
:101F680083130008F1004808263E8400831771088F
:101F78008000C703C80AAE2F4808263E840083178E
:101F880080010A128A15FD21CD011630CE0081305C
:101F9800CF0000300A128A11DF20CD01CD0A263089
:101FA800CE008130CF0001300A128A11DF20C8012B
:101FB800C60120080A128A15B1240A128A150038A7
:101FC800031DE92FC601C60AEE2FC80A03304802CE
:101FD800031CDD2F460BFA2F2008023E84008313D2
:101FE8000008A1004E3A0319013400340A128A1578
:081FF8006B240A128A15003463
:00000001FF
